:020000040800F2
:10000000280A02200D02000831020008330200080D
:10001000350200083702000839020008000000001D
:100020000000000000000000000000003B0200088B
:100030003D020008000000003F02000841020008E5
:10004000430200084302000843020008430200087C
:10005000430200084302000843020008430200086C
:10006000430200084302000843020008430200085C
:10007000430200084302000843020008430200084C
:10008000430200084302000843020008430200083C
:10009000430200084302000843020008430200082C
:1000A000430200084302000843020008430200081C
:1000B0004302000843020008210C00084302000824
:1000C00043020008430200084302000843020008FC
:1000D00043020008F10E0008430200084302000832
:1000E00043020008430200084302000843020008DC
:1000F000850D00084302000843020008430200087F
:1001000043020008430200084302000843020008BB
:1001100043020008430200084302000843020008AB
:10012000430200084302000843020008430200089B
:10013000430200084302000843020008430200088B
:10014000430200084302000843020008430200087B
:10015000430200084302000843020008430200086B
:10016000430200084302000843020008430200085B
:100170004302000843020008430200080000000098
:10018000430200084302000843020008430200083B
:10019000430200084302000843020008430200082B
:1001A000430200084302000843020008430200081B
:1001B000430200084302000843020008430200080B
:1001C0004302000843020008000000004302000848
:1001D00043020008430200084302000843020008EB
:1001E00043020008430200084302000843020008DB
:1001F0004302000843020008DFF80CD000F05AF870
:100200000048004719150008280A0220DFF83400CA
:10021000016841F470010160BFF34F8FDFF82800DF
:10022000016821F040410160BFF36F8F074800472C
:10023000FEE7FEE7FEE7FEE7FEE7FEE7FEE7FEE796
:10024000FEE7FEE788ED00E034EF00E0F90100088A
:100250002DE9F05F0546002092469B4688460646FB
:10026000814640241BE0284641464746224600F08E
:1002700042F853465A46C01A914110D311461846C7
:10028000224600F029F82D1A67EB01084F46224656
:100290000120002100F020F817EB00094E41201E3C
:1002A000A4F10104DFDC484631462A464346BDE856
:1002B000F09F0000064C074D06E0E06840F00103A7
:1002C00094E8070098471034AC42F6D3FFF798FF44
:1002D0005829000878290008202A04DB203A00FA6F
:1002E00002F1002070479140C2F1200320FA03F38D
:1002F000194390407047202A04DB203A21FA02F08B
:100300000021704721FA02F3D040C2F1200291404F
:1003100008431946704770B58C1810F8015B15F04A
:10032000070301D110F8013B2A1106D110F8012B67
:1003300003E010F8016B01F8016B5B1EF9D12B078C
:1003400005D40023521E0DD401F8013BFAE710F842
:10035000013BCB1A921C03E013F8015B01F8015B2F
:10036000521EF9D5A142D8D3002070BD10B500BFF0
:1003700000BF00BF00BF00BFBFF34F8F00BF00BF73
:1003800000BF00BF00BF00BFBFF36F8F00BF00BF43
:1003900000BF0020114908601148006840F4003097
:1003A0000F49086000BF00BF00BFBFF34F8F00BF01
:1003B00000BF00BF00BF00BF00BFBFF36F8F00BF13
:1003C00000BF00BF00BF00F01BFB04484C300068BA
:1003D00040F0040001494C31086010BD50EF00E0CE
:1003E00014ED00E01CB51348006840F020001149EE
:1003F00008600120032100230246CDE900104FF4DC
:1004000020710D4800F052F80A48006840F48070EE
:1004100008490860012000210B460A46CDE900107A
:10042000F021064800F042F801228021024800F045
:100430002FF81CBD3038024000140240002002405A
:1004400030B5CC1000F1200353F824304C07E50EF2
:100450000F24AC40A343CD1000F1200444F8253014
:10046000CC1000F1200353F824304C07E40E02FABC
:1004700004F42343CD1000F1200444F8253030BDAE
:1004800002461069084008B1012070470020FCE7CF
:1004900002F001030BB1816101E00B04836170473D
:1004A0000146086900F0F002100970472DE9F04795
:1004B0000C46DDE90867002100258C4600BF60E09E
:1004C0004FF0010808FA01F504EA050CAC4557D1D4
:1004D000D0F800804FEA410A4FF0030909FA0AF9FF
:1004E00028EA0908C0F80080D0F800804FEA4109E6
:1004F00002FA09F948EA0908C0F80080012A01D087
:10050000022A27D1D0F808804FEA410A4FF00309A8
:1005100009FA0AF928EA0908C0F80880D0F8088022
:100520004FEA410906FA09F948EA0908C0F80880C3
:10053000D0F804904FF0010808FA01F829EA0809F8
:10054000C0F80490D0F8048003FA01F948EA0908D9
:10055000C0F80480D0F80C804FEA410A4FF003093C
:1005600009FA0AF928EA0908C0F80C80D0F80C80CA
:100570004FEA410907FA09F948EA0908C0F80C806E
:10058000491C10299CD3BDE8F08700001CB5174812
:10059000006840F00100154908600846006840F016
:1005A000040008600846006840F0800008600220EF
:1005B00000210B460A46CDE9001001210C48FFF747
:1005C00075FF012000210B460A46CDE900104103CA
:1005D0000848FFF76BFF012000210B460A46CDE9D2
:1005E00000100C210448FFF761FF1CBD30380240A9
:1005F0000000024000080240001C024010B5044602
:1006000014B101202D4908702C480078002839D0F9
:1006100008212B48FFF734FF80B104212848FFF759
:100620002FFF58B14FF400512648FFF729FF28B19A
:1006300001212548FFF724FF012823D10A2000F0DB
:1006400005FF00201D49087008211D48FFF718FF0D
:1006500008B9012010BD04211948FFF711FF08B99E
:100660000220F7E74FF400511648FFF709FF08B9D9
:100670000320EFE701211448FFF702FF01281BD1F7
:100680000420E7E708210E48FFF7FAFE012813D1FE
:1006900004210B48FFF7F4FE01280DD1410309485E
:1006A000FFF7EEFE012807D101210748FFF7E8FE1A
:1006B00010B90120014908700020CBE70A00022090
:1006C000001C024000080240000002401CB50D481A
:1006D000006840F002000B4908600120032100235C
:1006E0000246CDE900100848FFF7E0FE0122022192
:1006F0000548FFF7CDFE012211460348FFF7C8FE6B
:100700001CBD0000303802400004024070B50546B0
:100710000C462C48006800F0010018B12AA000F037
:1007200027FC70BD142C02D33648844203D93648C6
:1007300000F01EFCF5E7354805600068344909689B
:1007400088423CD03148006831490968884203DD5D
:1007500001203049087002E000202E4908702D4821
:10076000027880212C48FFF793FE284A1268284B14
:100770001B68D01A002801DB024600E04242114605
:10078000D21701EB12621212244B1A601F4A126830
:100790001F4B1B68D11A002901DB0A4600E04A42C0
:1007A0001046D21700EB12621212A0EB02221C4B71
:1007B0001A7000201B490870204600F0C5FA00BFDF
:1007C000AFE70000000401400D0A546865206C6129
:1007D00073742074696D652070756C73657320691E
:1007E00073206E6F742073656E642066696E697322
:1007F0006865642C7761697420706C65617365212C
:100800000D0A0000A08601001C2800081400022028
:10081000180002201C0002200014024010000220D8
:100820000C0002200D00022070B504460D4616464D
:10083000002C03DC22A000F09BFB70BD2B4800685D
:1008400000F0010018B12AA000F092FBF5E7142D8A
:1008500002D33648854203D9354800F089FBECE7DE
:1008600034480670027880213348FFF711FE314882
:100870000078012805D131480068204430490860DB
:1008800007E02C48007820B92C480068001B2C4950
:1008900008602046E11704EB11610912294A116032
:1008A000E11704EB11610912A4EB0121264A117032
:1008B000002026490870284600F046FA00BFBCE731
:1008C0000D0A546865206E756D2073686F756C64D1
:1008D0002062652067726561746572207468616E5C
:1008E000207A65726F21210D0A000000000401408A
:1008F0000D0A546865206C6173742074696D6520FD
:1009000070756C736573206973206E6F74207365E6
:100910006E642066696E69736865642C77616974BA
:1009200020706C65617365210D0A0000A0860100CE
:100930001C2800081C00022000140240180002209D
:1009400014000220100002200C0002200D000220E2
:100950002DE9F0410746884614461D46284600F01A
:1009600033F8C5F1040007FA00F60F20284100EA29
:100970000800064306F00F06E21704EBD26252119C
:10098000920002F1E022D2F800212146E31704EBA5
:10099000D3635B11A4EB431C012303FA0CF31A434A
:1009A0002046E31704EBD3635B119B0003F1E023C4
:1009B000C3F800210348005D40EA061001490855CC
:1009C000BDE8F08100E400E00146072323EA0102CC
:1009D0001202054B18684FF6FF031840034B1843EB
:1009E0001043014B186070470CED00E00000FA0561
:1009F0004A0A52020243014B1A60704708ED00E0B8
:100A000010B50023234C236000BF00BF00BFBFF31D
:100A10004F8F00BF00BF00BF231F1868C0F34E31C7
:100A200000BFC0F3C90200BF43F6E07303EA4113FD
:100A30004FF0404404EA82742343174C236000BF04
:100A400000BF131EA2F10102EED10B1EA1F10101A4
:100A5000E7D100BF00BF00BFBFF34F8F00BF00BF93
:100A600000BF0C4B703B1B6843F48033094C703C57
:100A7000236000BF00BF00BFBFF34F8F00BF00BFA8
:100A800000BF00BF00BF00BFBFF36F8F00BF00BF3C
:100A900000BF10BD84ED00E060EF00E02DE9F04103
:100AA00004460D4616461F461548006840F00100F2
:100AB0001349086000201249083108601048006896
:100AC000104908400E4908600F48091D0860081FBA
:100AD000006820F48020091F0860002008490C31BC
:100AE0000860FFF743FC3B4632462946204600F0AB
:100AF0000DF800214FF00060FFF77AFFBDE8F081AC
:100B000000380240FFFFF6FE10300024F0B5044626
:100B10000D46002100203F4E366846F480363D4F9A
:100B20003E6001E04E1CB1B23A4E366806F4003623
:100B30001EB941F6FF76B142F4DB41F6FF76B142D1
:100B400001D1012065E0334E4036366846F08056CC
:100B5000304F40373E60304E366846F440462E4FA8
:100B60003E603E46366846F480363E603E46366815
:100B700046F400363E60274E0836366846F4144682
:100B8000244F08373E60234E366826F08076214F8A
:100B90003E6045EA84160127C7EB520746EA07463E
:100BA00046EA036646F480061A4F3F1D3E603E1F2C
:100BB000366846F080763F1F3E6000BF154E3668AF
:100BC00006F00076002EF9D0144E366846F4807692
:100BD000124F3E603E46366846F400763E603E4622
:100BE000366846F007063E600A4E0836366826F03C
:100BF0000306084F08373E603E46366846F0020658
:100C00003E6000BF034E0836366806F00C06082E1C
:100C1000F8D1F0BD0038024000700040003C0240B6
:100C200010B50C48006800F0010058B10A49086985
:100C3000804700200749143108604FF47A70054955
:100C40001C3108600348006820F001000149086079
:100C500010BD0000100800406C0002207CB5054665
:100C60000C463648006840F00200344908603348BA
:100C70001438006840F0040030491439086002203C
:100C8000032100230246CDE9001080212C48FFF704
:100C90000DFC032207212A48FFF7D2FB29480560F3
:100CA000001F0460001D0068400826490C310860E0
:100CB00024482C38006840F0040022492C39086090
:100CC0000846006840F0080008601E4814380068B4
:100CD00040F4E0401B49143908600846006840F4BD
:100CE0000060086017480C38006840F01000154993
:100CF0000C39086013482C38006840F08000114916
:100D00002C3908600F482038006840F001000D4978
:100D10002039086002232C2201210846FFF718FE23
:100D2000002008491C39086006482C38006840F04B
:100D3000010004492C3908607CBD000044380240A1
:100D4000000802402C0401400C49B1FBF0F1491E9F
:100D50000B4A1160114609684908094A0C321160B2
:100D60000021074A083A116005492C39096841F009
:100D70000101034A2C3A11607047000040420F0005
:100D80002C04014010B53C48006800F00100002828
:100D900070D03948006820F00100374908603748B2
:100DA000007800284DD13648006848B1FF2032490C
:100DB0002031086032480068401E3149086010E068
:100DC0003048007860B12F480078401E2A49203111
:100DD000086000202B49087001202849087000E0B5
:100DE00030E02548001D006840F001002249091D3F
:100DF000086021483430006840F400401E49343116
:100E000008601D481038006840F001001A49103988
:100E100008601D480078012809D117482030006873
:100E2000401C1A49096808441849086022E0124821
:100E300020300068401C15490968081A13490860E9
:100E400018E000BF01200D4908700B4834300068DD
:100E500020F4004008493431086007481038006821
:100E600020F001000449103908600848016808A012
:100E700000F07EF810BD0000100401400D000220BB
:100E8000100002200C0002201C000220180002208A
:100E9000B5B1C7B0CEBBD6C33D256C640D0A00000A
:100EA00070B505460C461048006840F004000E4935
:100EB00008600E480560001F04600C482038006878
:100EC00040F0010009492039086008482C380068C2
:100ED00040F0010005492C39086002231E2203213D
:100EE0000846FFF735FD70BD403802402C08004031
:100EF0001C49C96901F0200109B31A49496AC8B2FD
:100F00001949098801F40041C9B91749098801F450
:100F1000804161B10A2803D00021134A118020E0EA
:100F20001149098841F400410F4A118019E00D2848
:100F300006D10D49098841F480410B4A118010E027
:100F400009490988C1F30D01084A50540649098826
:100F5000491C054A118011460988C72901DD002175
:100F6000118070470010014008000220600102203B
:100F70000FB4054B10B503A9044A029800F018F805
:100F800010BC5DF814FB0000FD14000804000220F2
:100F900002E008C8121F08C1002AFAD17047704742
:100FA000002001E001C1121F002AFBD170470000A0
:100FB0002DE9FF4F8DB00F460546002606E0252897
:100FC0000BD0DDE90F1290476D1C761C28780028A5
:100FD000F5D111B03046BDE8F08F0024A246A146FD
:100FE0000122EC4900E0044315F8013F203B02FADE
:100FF00003F00842F7D128782A2810D06FF02F028A
:101000002878A0F13001092914D80AEB8A0102EBF3
:10101000410144F0020400EB010A6D1CF0E701CF2E
:101020005FEA000A03D544F40054CAF1000A44F010
:1010300002046D1C28782E2817D115F8010F44F0F2
:1010400004042A280ED06FF02F022878A0F1300176
:1010500009290AD809EB890102EB410100EB0109DA
:101060006D1CF2E757F8049B6D1C28786C280FD094
:1010700006DC4C2817D068280DD06A2814D104E06B
:10108000742810D07A280FD10DE044F400140AE03F
:1010900044F4801401E044F440146978814202D1A0
:1010A00004F580146D1C6D1C2A786E2A1FD00CDC90
:1010B000632A31D004DC002A8BD0582A11D1A3E056
:1010C000642A68D0692A0CD165E0732A2ED004DC2A
:1010D0006F2A73D0702A04D19BE0752A6FD0782ACA
:1010E0006ED01046DDE90F129047761C50E1C4F334
:1010F0000250022806D0032809D0042801CF09D0C5
:10110000066045E101CFF117C0E9006140E101CF80
:1011100006803DE106703BE117F8040B8DF80000F6
:1011200000208DF80100EB46012003E057F804BBD6
:101130004FF0FF3061074FF0000102D40DE008F1DD
:101140000101884649450FDA8045F8DB1BF8081095
:101150000029F4D108E008F1010188468142FADB58
:101160001BF808100029F6D1DDE90F23AAEB0800CF
:101170008146214600F036F9304400EB080604E0D1
:10118000DDE90F121BF8010B9047B8F10108F7D207
:1011900021464846F7E00A21C4F302534FF0000B02
:1011A0000891022B04D001CFC117032B09D00AE00C
:1011B000FF1D27F00707F7E8020108E032E01FE013
:1011C00020E000B2C117042B01D140B2C117031EA9
:1011D00071F1000307DA4FF0000CD0EB0C006CEB60
:1011E00001012D2302E0230504D52B238DF82430A3
:1011F000012303E0E30701D02023F7E7984658E0F6
:101200000A2110E010210EE010204FF0000B089092
:101210000CE010214FF0000B44F004044FF00809DB
:10122000089103E008214FF0000B0891C4F302532A
:10123000022B04D001CF0021032B06D006E0FF1DB6
:1012400027F00707F7E8020103E080B2042B00D182
:10125000C0B24FF0000823072BD5702A07D0DDF865
:1012600020C08CF0100C5CEA0B0C05D00EE0402383
:101270008DF82430012308E050EA010306D0302322
:101280008DF824308DF8252002239846DDF820C003
:101290008CF0080C5CEA0B0C0BD150EA010301D175
:1012A000630706D530238DF824304FF00108A9F1EB
:1012B0000109582A04D038A20B9208AA0A920BE01E
:1012C0003AA2F9E75B46089AFEF7C2FF0B9B9B5CCC
:1012D0000A9A521E0A92137050EA0102F2D10A9839
:1012E000ADEB000000F1200B600702D524F4803440
:1012F00001E04FF00109D94502DDA9EB0B0000E048
:10130000002000EB0B0141440890AAEB010AE00326
:1013100006D4DDE90F232146504600F063F8064469
:101320004FF0000908E009A911F80900DDE90F12E2
:10133000904709F10109761CC145F4DBE0030CD5A7
:10134000DDE90F232146504600F04CF8064404E046
:10135000DDE90F1230209047761C0899481E08904E
:101360000029F5DC08E00A980A990078491C0A91DE
:10137000DDE90F129047761CBBF10001ABF1010BC8
:10138000F1DC21465046DDE90F2300F019F8064450
:101390006D1C1BE6092801003031323334353637F5
:1013A00038396162636465660000000030313233B1
:1013B0003435363738394142434445460000000051
:1013C0002DE9F041044600251E461746880404D442
:1013D00005E039462020B0476D1C641EF9D528462B
:1013E000BDE8F0812DE9F041044600251E469046F7
:1013F000C80301D5302700E02027880404D505E084
:1014000041463846B0476D1C641EF9D52846BDE8F4
:10141000F08100004FF0E021096921F004014FF054
:10142000E0221161C21700EB5272C2F3C702054BF2
:101430001A704FF47A714143C1F3CF01024A11800F
:1014400070470000000002200200022070B5044630
:101450004FF4077094FBF0F0C6B24FF4077094FBA2
:10146000F0F100FB114085B205E04FF4077000F089
:1014700027F8701EC6B2002EF7D115B1284600F02D
:101480001FF870BD01460D4A12784A434FF0E02321
:101490005A6100229A6101221A6100BF4FF0E022D6
:1014A000106900F001021AB100F48032002AF5D070
:1014B00000224FF0E0231A619A6170470000022079
:1014C00001460D4A12884A434FF0E0235A61002238
:1014D0009A6101221A6100BF4FF0E022106900F00A
:1014E00001021AB100F48032002AF5D000224FF038
:1014F000E0231A619A6170470200022000BF054A8A
:10150000D26902F04002002AF9D0C2B2014B9A62BD
:1015100070470000001001404FF001080F27092319
:10152000022219214FF4D870FFF7B8FAD820FFF73C
:1015300071FF4FF4E1316C2000F06CF826484168EF
:101540006C208847FFF7C2F8FFF720F8FEF74AFF44
:10155000D72140F2E730FFF781FB20A0FFF708FD1D
:1015600038E00020FFF74AF80446042C05D14FF478
:10157000FA710020FFF7CAF811E0012C06D1012210
:101580004FF4FA710846FFF74FF908E0022C06D134
:1015900000224FF4FA714FF4C870FFF745F9134871
:1015A000FEF77EFF0546BD4204D02F46394610A007
:1015B000FFF7DEFC0A20FFF749FF701CC6B2322E8F
:1015C00008D1002688F001008046024601210E481D
:1015D000FEF75EFFC5E700006C000220BAECCDE22A
:1015E000B4ABB8D0C6F70D0A0000000000200240DE
:1015F000B5B1C7B0B4ABB8D0C6F7D7B4CCACCEAAEF
:101600003A25780D0A0000000004024001460868EF
:10161000704700007CB505460C462948684300EB3E
:101620005400B0FBF4F62748006840F0010025495B
:10163000086024481430006840F01000214914313B
:1016400008600120022100230A46CDE900104FF472
:10165000C0611D48FEF72AFF072209211A48FEF73C
:10166000EFFE07220A211848FEF7EAFE1748C66077
:1016700000201649086008460068086008460068AF
:1016800008600846006808600846006840F00800E6
:1016900008600846006840F00400086008460068DA
:1016A00040F0200008600223252203210846FFF7AE
:1016B0004FF90648006840F00100044908607CBD0D
:1016C00040420F003038024000000240001001404C
:1016D00030B595B0054613AB12AA09A9284600F00B
:1016E0003FFA044614B1204615B030BD00201490D6
:1016F00026E0224909689DF8502001EBC20113AB96
:1017000011AA486801A900F02BFA04460CB1204642
:10171000EAE709A901A800F0DDFC60B99DF84400E2
:101720009DF84810884201DD0220DDE79DF8500059
:10173000124988750AE09DF85000401CC0B2149010
:101740000E48007D9DF850108842D2DC00BF0B4847
:10175000007D9DF85010884201D10420C4E714A9EF
:10176000284600F0DDFA04460CB12046BCE79DF89F
:101770005000024948750020B6E700006C000220C6
:101780002DE9F0419AB09C48847D007DA04202DCA6
:101790001AB0BDE8F0819849096801EBC40106ABB5
:1017A00007AA486808A900F0DBF908A993A0FFF789
:1017B000DFFB002644E09048008B0121B140084047
:1017C000D8B122218FA0FFF7D3FB304600F02EFBCB
:1017D00089492431471839468BA0FFF7C9FB2221DC
:1017E00088A0FFF7C5FB304600F020FB824924317A
:1017F000084410A941F8260018E0304600F016FB16
:101800007D492431085810A941F826007A48C07D46
:1018100030B910A850F826107CA0FFF7A9FB05E00E
:1018200010A850F826107AA0FFF7A2FB9DF81C0024
:10183000401EB04202D078A0FFF79AFB701CC6B2DF
:101840009DF81C008642B6DB74A0FFF791FB00F008
:101850003DFB6948407D0B280DD2DFE800F0060D06
:10186000151E27323F4E5F7287006349096851F8A1
:1018700034008047054690E05F4A126852F8341001
:1018800010988847054688E05B4B1B6853F8342066
:10189000DDE91001904705467FE0574F3F6857F854
:1018A000343010A807C89847054676E0DFF848C1ED
:1018B000DCF800C05CF8347010A80FC8B8470546C3
:1018C0006BE01498DFF830C10090DCF800C05CF8E1
:1018D000347010A80FC8B84705465EE0DDE9140172
:1018E000DFF814C1CDE90001DCF800C05CF8347009
:1018F00010A80FC8B84705464FE0DDE91412169846
:10190000DFF8F4C0CDE900120290DCF800C05CF80A
:10191000347010A80FC8B84705463EE0DDE914232F
:10192000DDE91610DFF8D0C0CDE90023CDE90210C3
:10193000DCF800C05CF8347010A80FC8B847054642
:101940002BE0DDE91523DDE91710CDE90123CDE911
:1019500003101498DFF8A0C00090DCF800C05CF819
:10196000347010A80FC8B847054616E0DDE9162305
:10197000DDE91810CDE90223CDE90410DDE91401F9
:10198000DFF874C0CDE90001DCF800C05CF8347009
:1019900010A80FC8B847054600BF00BF00F056FAB0
:1019A0009DF8180001280CD11348C07D20B92946A4
:1019B0001BA0FFF7DDFA07E029461BA0FFF7D8FAC6
:1019C00002E018A0FFF7D4FA0B4890F8EC0088B1B9
:1019D0000948D0F8F0000A21B0FBF1F201FB120730
:1019E0000548D0F8F000B0FBF1F83A46414611A0A6
:1019F000FFF7BEFA00BFCBE66C0002200D0A25738C
:101A0000280000002563000025730000256C640099
:101A100030582558000000002C000000290000006C
:101A20003D256C753B0D0A003D305825583B0D0A8D
:101A30000000000046756E6374696F6E2052756E0B
:101A40002054696D653A25642E2531646D730D0A45
:101A500000000000F0B503461546002000220026D5
:101A600000245BE01F782C2F01D104B901221F78DC
:101A7000292F01D01F780FB904B950E0002E3AD1B8
:101A80001F78302F02DB1F78392F17DD1F782D2F9D
:101A900014D01F782B2F11D01F78612F02DB1F78F5
:101AA000662F0BDD1F78412F02DB1F78462F05DDE7
:101AB0001F78582F02D01F78782F0CD102B12EE05A
:101AC0001F78612F03DB1F78203F0F7001E01F7824
:101AD0000F70491C1FE01F78222F04D102B11EE0B5
:101AE0000126012417E01F78202F14D01F782C2FF7
:101AF00011D0FF2613E01F78222F00D1002402B15D
:101B00000DE044B11F785C2F02D15B1C471CF8B27A
:101B10001F780F70491C471CF8B25B1CA2E700BF7E
:101B200000270F702E70F0BD10B504460020107015
:101B30000BE020780870641C491C1078401C107061
:101B40001078984201DB012010BD2078202802D0B7
:101B500020780028EDD10020087000BFF4E70000D5
:101B60002DE9FF4F85B0804689460027002004906C
:101B70000390012002904FF0000B002544461DE029
:101B80002078202816D005F07F00052812DA0DB93C
:101B900045F0800505F07F00042803D120782A282D
:101BA00000D00EE0207805F07F010DF80100681CE0
:101BB000C5B202E0852D00D103E0641C2078002826
:101BC000DED100BF8DB1002005F07F010DF80100CE
:101BD00051A1684600F07EFA18B9002108980170FA
:101BE00002E001210898017000254FF0000A4446E8
:101BF00014E0641C0AF1010000F0FF0A207820289C
:101C000002D020782A2809D1204600F0D5F90646CE
:101C1000282E03D02A2E01D0CDF810A02078282815
:101C200002D020780028E4D14446049810B10498EA
:101C3000401C04444FF0000A002654E0207810B9FC
:101C40004FF0010A50E02078282803D116B9781CFB
:101C5000C7B213E02078292808D13EB917B1781E01
:101C6000C7B201E04FF0010A47B93DE020782228D1
:101C700004D10EB9012000E00020064647B92078C3
:101C800020282FD0207889F8000009F1010929E0E7
:101C900020782C2804D101200290681CC5B214E0E1
:101CA0002078202811D0207828280ED04DB9BBF1FB
:101CB000050F06DA20780DF80B000BF1010000F09B
:101CC000FF0B0298401CC0B20290012F0AD102986B
:101CD000022807D10298401CC0B202900398401C11
:101CE000C0B20390641CA9E700BF0398012809D182
:101CF00000200DF80B0008A1684600F0EBF908B9C8
:101D000000200390079903980870002089F80000CC
:101D1000504609B0BDE8F08F766F6964000000009E
:101D20002DE9F043B5B005460F460024002604E037
:101D300000213D488155701CC6B20A2EF8DB06E032
:101D40006D1C287818B9012035B0BDE8F0832878DB
:101D50002828F5D16D1C61E034AA69462846FFF7B2
:101D600079FE064635449DF8D00020B1012827D0E1
:101D7000FF284CD149E09DF8000000B333A9684624
:101D800000F025F906460EB10220DDE7204600F0FE
:101D90004DF825490A31339A0A50A1F12400008BED
:101DA0000121A140884320491A39088304211E4893
:101DB0000155601CC4B20A2C01DD0320C4E726E0F3
:101DC000684600F0A3F9401C00F0FF08204600F030
:101DD0002DF815490A3100EB01094946684600F023
:101DE0008AF911481A38018B0120A040014388B2BA
:101DF0000D491A3908830C4800F80480601CC4B2ED
:101E00000A2C01DD03209FE701E002209CE700BFD0
:101E10002878292801D0287800B900E09CE700BF85
:101E20003C70002090E7000086000220024600205F
:101E3000002105E0044B5B5C0344D8B24B1CD9B2D3
:101E40009142F7DB70470000860002200D480068D1
:101E500000F0010040B10C48D0F8F0004FF6FF71DF
:101E600008440949C1F8F0000748D0F8F0000549D6
:101E70001431096808440449C1F8F0000846D0F854
:101E8000F0007047100800406C00022010B50446B6
:101E900004EBC40000EB04100122C2EB800081B20D
:101EA0004FF47A70FEF7FCFF01200149C87510BDA0
:101EB0006C00022010B50246012000E050430B1ECA
:101EC000A1F10104E1B2F9D110BD00000948006898
:101ED00020F00100074908604FF6FF7005491C31EA
:101EE000086000200349143108600349C1F8F0007C
:101EF00070470000100800406C00022070B51D48BB
:101F0000008800F40040002833D01A4805780020EB
:101F100019494855194881681748884704461CB92B
:101F20001649C868804721E0134800F0FBF80546D1
:101F3000012D00D02C46CCB1012C06D0022C08D0AB
:101F4000032C0AD0042C10D10BE00DA0FFF710F8E1
:101F50000BE00EA0FFF70CF807E00FA0FFF708F862
:101F600003E010A0FFF704F800BF00BF0020014904
:101F7000088070BD08000220600102206C00022071
:101F8000BAAFCAFDB4EDCEF3210D0A00B2CECAFD40
:101F9000B4EDCEF3210D0A00B2CECAFDCCABB6E053
:101FA000210D0A00CEB4D5D2B5BDC6A5C5E4B5C4D1
:101FB000BAAFCAFD210D0A000146491C00E0491CC8
:101FC0000878202801D10029F9D1087870472DE937
:101FD000F04F05460F4600264FF00A09B3462C463F
:101FE0000020386034E02078392802DC207830285E
:101FF00011DA28782D2802D028782B2800D156B164
:102000002078462802DC2078412804DA20785828F5
:1020100017D1012E15D12078412801DB4FF010098E
:1020200028782D2803D14FF0020B6D1C0FE0287883
:102030002B2803D14FF0010B6D1C08E0701CC6B2B9
:1020400005E0207800B904E00120BDE8F08F641CB1
:10205000C9E700BF2C46B9F1100F0FD1032E01DAEA
:102060000220F2E72078302806D16078582803D182
:10207000A41CB01EC6B204E00320E6E70EB904209B
:10208000E3E71BE00EB1701EC6B22078392806DCEB
:102090002078302803DB2078A0F1300A02E0207895
:1020A000A0F1370A31464846FFF704FF39680AFBBA
:1020B00000103860641C207800B900E0E2E700BF3F
:1020C000BBF1020F04D13868C0F10008C7F80080E6
:1020D0000020BAE702460AE010780B78984201D057
:1020E00001207047107800B902E0521C491CF3E748
:1020F00000BF0020F5E706E002780A70027802B916
:1021000002E0401C491CF7E700BF70470146002071
:1021100005E00A7802B903E0421CD0B2491CF8E796
:1021200000BF704710B58CB004461E230BAA03A94C
:102130002046FFF7F9FC0090009810B101200CB088
:1021400010BD9DF82C00044400200B900EE0404888
:102150009DF82C2050F8221003A8FFF7BBFF00B910
:1021600008E09DF82C00401CC0B20B909DF82C009C
:102170000728ECD300BF9DF82C00072863D2DFE8C6
:1021800000F004053C5E6564630000BF31A0FEF70B
:10219000EFFE31A0FEF7ECFE3FA0FEF7E9FE4EA0F9
:1021A000FEF7E6FE5CA0FEF7E3FE6BA0FEF7E0FEA6
:1021B00079A0FEF7DDFE87A0FEF7DAFE8CA0FEF721
:1021C000D7FE94A0FEF7D4FE98A0FEF7D1FE9DA006
:1021D000FEF7CEFEA2A0FEF7CBFEA8A0FEF7C8FE3B
:1021E000B4A0FEF7C5FEC1A0FEF7C2FECCA0FEF76C
:1021F000BFFED8A0FEF7BCFEA2E216A0FEF7B8FE16
:10220000E4A0FEF7B5FE00200B900EE0F148006858
:102210009DF82C2000EBC2004168EFA0FEF7A8FE5D
:102220009DF82C00401CC0B20B90EA48007D9DF840
:102230002C108842EADC07A0FEF79AFE80E205A097
:10224000FEF796FECCE179E24DE221E2F4E10000F6
:10225000200002200D0A00002D2D2D2D2D2D2D2DBD
:102260002D2D2D2D2D2D2D2D2D2D2D2D2D2D2D2D9E
:1022700055534D4152542056332E332D2D2D2D2D97
:102280002D2D2D2D2D2D2D2D2D2D2D2D2D2D2D2D7E
:102290002D2D2D200D0A00002020202055534D41CA
:1022A0005254CAC7D3C9414C49454E54454BBFAAA5
:1022B000B7A2B5C4D2BBB8F6C1E9C7C9B5C4B4AEFC
:1022C000BFDAB5F7CAD4BBA5BDBBD7E9BCFE2CCDE0
:1022D000A8B9FD200D0A0000CBFC2CC4E3BFC9D275
:1022E000D4CDA8B9FDB4AEBFDAD6FACAD6B5F7D305
:1022F000C3B3CCD0F2C0EFC3E6B5C4C8CEBACEBA31
:10230000AFCAFD2CB2A2D6B4D0D02ED2F2B4CB2C10
:10231000C4E3BFC90D0A0000D2D4CBE6D2E2B8FCB8
:10232000B8C4BAAFCAFDB5C4CAE4C8EBB2CECAFDE0
:1023300028D6A7B3D6CAFDD7D62831302F3136BD1F
:10234000F8D6C62CD6A7B3D6B8BACAFD29A1A2D74B
:10235000D6B7FBB4AE0D0A00A1A2BAAFCAFDC8EB56
:10236000BFDAB5D8D6B7B5C8D7F7CEAAB2CECAFDB0
:10237000292CB5A5B8F6BAAFCAFDD7EEB6E0D6A7F8
:10238000B3D63130B8F6CAE4C8EBB2CECAFD2CB22F
:10239000A2D6A7B3D60D0A00BAAFCAFDB7B5BBD84F
:1023A000D6B5CFD4CABE2ED6A7B3D6B2CECAFDCF2D
:1023B000D4CABEBDF8D6C6C9E8D6C3B9A6C4DC2CFB
:1023C000D6A7B3D6BDF8D6C6D7AABBBBB9A6C4DCC0
:1023D0002E0D0A00BCBCCAF5D6A7B3D63A777777DC
:1023E0002E6F70656E6564762E636F6D0D0A00004A
:1023F00055534D415254D3D037B8F6CFB5CDB3C3B2
:10240000FCC1EE28B1D8D0EBD0A1D0B4293A0D0A46
:10241000000000003F3A202020202020BBF1C8A16E
:10242000B0EFD6FAD0C5CFA20D0A000068656C7077
:102430003A202020BBF1C8A1B0EFD6FAD0C5CFA278
:102440000D0A00006C6973743A202020BFC9D3C301
:10245000B5C4BAAFCAFDC1D0B1ED0D0A0A00000083
:1024600069643A2020202020BFC9D3C3BAAFCAFD77
:10247000B5C44944C1D0B1ED0D0A0A006865783A87
:1024800020202020B2CECAFD3136BDF8D6C6CFD42A
:10249000CABE2CBAF3B8FABFD5B8F12BCAFDD7D64D
:1024A000BCB4D6B4D0D0BDF8D6C6D7AABBBB0D0A33
:1024B0000A0000006465633A20202020B2CECAFDE5
:1024C0003130BDF8D6C6CFD4CABE2CBAF3B8FABFE5
:1024D000D5B8F12BCAFDD7D6BCB4D6B4D0D0BDF890
:1024E000D6C6D7AABBBB0D0A0A00000072756E746F
:1024F000696D653A312CBFAAC6F4BAAFCAFDD4CB18
:10250000D0D0BCC6CAB13B302CB9D8B1D5BAAFCA4D
:10251000FDD4CBD0D0BCC6CAB13B0D0A0A00000026
:10252000C7EBB0B4D5D5B3CCD0F2B1E0D0B4B8F1EC
:10253000CABDCAE4C8EBBAAFCAFDC3FBBCB0B2CED9
:10254000CAFDB2A2D2D4BBD8B3B5BCFCBDE1CAF8B7
:102550002E0D0A002D2D2D2D2D2D2D2D2D2D2D2D1A
:102560002D2D2D2D2D2D2D2D2D2D2D2D2D2D414C68
:1025700049454E54454B2D2D2D2D2D2D2D2D2D2DD9
:102580002D2D2D2D2D2D2D2D2D2D2D2D2D2D2D2088
:102590000D0A00002D2D2D2D2D2D2D2D2D2D2D2D08
:1025A0002D2D2D2D2D2D2D2D2D2D2D2D2DBAAFCAAF
:1025B000FDC7E5B5A52D2D2D2D2D2D2D2D2D2D2D29
:1025C0002D2D2D2D2D2D2D2D2D2D2D2D2D2D2D2D3B
:1025D000200D0A006C00022025730D0A0000000087
:1025E00059A0FEF7C5FC00200B901AE06649096867
:1025F0009DF82C2001EBC20101AB02AA486803A997
:10260000FFF7AEFA604800689DF82C1050F83120B2
:1026100003A95EA0FEF7ACFC9DF82C00401CC0B2E4
:102620000B905948007D9DF82C108842DEDCAFF2FB
:10263000DC30FEF79DFC83E0AFF2E830FEF798FC5B
:102640000BAA03A92046FFF705FA9DF82C00C8B98C
:10265000694603A8FFF7BBFC0B909DF82C0020B93E
:102660004FA00099FEF784FC0EE09DF82C00042892
:1026700001D0022063E54DA0FEF77AFC012042491B
:10268000C87501E002205AE547A0FEF771FC57E04B
:1026900045A0FEF76DFC0BAA03A92046FFF7DAF967
:1026A0009DF82C00C8B9694603A8FFF790FC0B9071
:1026B0009DF82C0020B942A00099FEF759FC0EE0CD
:1026C0009DF82C00042801D0022038E53FA0FEF739
:1026D0004FFC00202C49C87501E002202FE532A0F4
:1026E000FEF746FC2CE030A0FEF742FC0BAA03A943
:1026F0002046FFF7AFF99DF82C00C8B9694603A83A
:10270000FFF765FC0B909DF82C0078B91E490098E6
:1027100081F8EC00084690F8EC0018B130A0FEF704
:1027200027FC07E035A0FEF723FC03E0022006E5C6
:10273000022004E51CA0FEF71BFC01E00120FEE4E2
:1027400000BF0020FBE400002D2D2D2D2D2D2D2D63
:102750002D2D2D2D2D2D2D2D2D2D2D2D2D2D2D2DA9
:102760002DBAAFCAFD204944202D2D2D2D2D2D2D04
:102770002D2D2D2D2D2D2D2D2D2D2D2D2D2D2D2D89
:102780002D2D2D2D200D0A006C00022025732069AF
:10279000642069733A0D0A3058253038580D0A0004
:1027A0004845583A305825580D0A00003136BDF8D2
:1027B000D6C6B2CECAFDCFD4CABE210D0A000000D3
:1027C0004445433A256C750D0A0000003130BDF8D0
:1027D000D6C6B2CECAFDCFD4CABE210D0A000000B3
:1027E00052756E2054696D652043616C63756C6130
:1027F00074696F6E204F4E0D0A00000052756E20F6
:1028000054696D652043616C63756C6174696F6EAA
:10281000204F46460D0A0000016070470D0A5468BB
:1028200065206672657175656E6379206973206FC6
:102830007574206F662072616E67652120706C650B
:102840006173652072657365742069742121287233
:10285000616E67653A3230487A7E3130304B487A63
:10286000290D0A003F0000006465630069640000F0
:1028700072756E74696D650068656C7000000000AB
:102880006C6973740000000068657800766F696495
:102890002077726974655F616464722875333220D1
:1028A000616464722C7533322076616C29000000FB
:1028B00075333220726561645F61646472287533B8
:1028C0003220616464722900766F6964204C6F6302
:1028D0006174655F526C65286C6F6E67206E756DF4
:1028E0002C753332206672657175656E63792C4480
:1028F00049525F54797065206469722900000000B4
:10290000766F69642064656C61795F6D73287531D9
:1029100036206E6D73290000766F69642064656CE3
:1029200061795F757328753332206E7573290000E5
:10293000766F6964204C6F636174655F41627328D0
:102940006C6F6E67206E756D2C7533322066726504
:102950007175656E637929007829000800000220EE
:102960006001000016030008D4290008600102205D
:10297000C8080000A00F0008A13A0103C1290F13E5
:1029800064281B0878041A80041A6C041A88041A34
:1029900068041A7004130D161B08B0081A19041ADB
:1029A0008C04134D14120812291B0885081A1808E4
:1029B0001329082B08C82812071B083010123C15D1
:1029C00002208D1E1B08D1381381171B08FD0CFA3D
:0429D000067601CEB8
:04000005080001F9F5
:00000001FF
